:100000000C945D000C9485000C9485000C94850084
:100010000C9485000C9485000C9485000C9485004C
:100020000C9485000C9485000C9485000C9485003C
:100030000C9485000C9485000C9485000C9485002C
:100040000C943B040C9485000C9409040C94E30379
:100050000C9485000C9485000C9485000C9485000C
:100060000C9485000C94850000000008000201003B
:100070000003040700000000000000000000000072
:10008000250028002B0000000000240027002A0083
:10009000040404040404040402020202020203032E
:1000A0000303030301020408102040800102040836
:1000B0001020010204081020850411241FBECFEF78
:1000C000D8E0DEBFCDBF22E0AEE3B1E001C01D92BB
:1000D000A030B207E1F711E0A0E0B1E0E8E7F1E11C
:1000E00002C005900D92AE33B107D9F710E0CDE50F
:1000F000D0E004C02197FE010E94C206CC35D10792
:10010000C9F70E94CF040C94BA080C94000090E048
:10011000FC01EC55FF4F249180579F4FFC018491C7
:10012000882399F090E0880F991FFC01EA57FF4F50
:10013000A591B491FC01E458FF4F859194918FB73C
:10014000F894EC91E22BEC938FBF0895AF92BF929D
:10015000CF92DF92EF92FF920F931F93CF93DF9393
:100160006C017B018B01040F151FEB015E01AE18C2
:10017000BF08C017D10759F06991D601ED91FC91E4
:100180000190F081E02DC6010995892B79F7C50111
:10019000DF91CF911F910F91FF90EF90DF90CF9063
:1001A000BF90AF900895FC01538D448D252F30E012
:1001B000842F90E0821B930B541710F0CF96089574
:1001C00001970895FC01918D828D981761F0A28DA1
:1001D000AE0FBF2FB11D5D968C91928D9F5F9F7367
:1001E000928F90E008958FEF9FEF08952FB7F894C6
:1001F0008091430190914401A0914501B091460145
:100200002FBF80934F0190935001A0935101B09361
:10021000520187E491E00E94E20097FF26C02FB7C9
:10022000F8948091430190914401A0914501B091CF
:1002300046012FBF40914F015091500160915101F3
:1002400070915201841B950BA60BB70B40914B018B
:1002500050914C0160914D0170914E0184179507AA
:10026000A607B707B0F28FEF9FEF0895FC01918DBD
:10027000828D981731F0828DE80FF11D858D90E009
:1002800008958FEF9FEF0895FC01918D228D892FA6
:1002900090E0805C9F4F821B91098F73992708958E
:1002A00087E491E00E94440121E0892B09F420E0D9
:1002B000822F089580E090E0892B29F00E94500160
:1002C00081110C9400000895FC01A48DA80FB92F92
:1002D000B11DA35ABF4F2C91848D90E001968F736E
:1002E0009927848FA689B7892C93A089B1898C918D
:1002F000837080648C93938D848D981306C00288DC
:10030000F389E02D80818F7D80830895EF92FF92A5
:100310000F931F93CF93DF93EC0181E0888F9B8D28
:100320008C8D98131AC0E889F989808185FF15C0E2
:100330009FB7F894EE89FF896083E889F989808105
:100340008370806480839FBF81E090E0DF91CF91D4
:100350001F910F91FF90EF900895F62E0B8D10E0F6
:100360000F5F1F4F0F731127E02E8C8D8E110CC065
:100370000FB607FCFACFE889F989808185FFF5CFB0
:10038000CE010E946401F1CFEB8DEC0FFD2FF11D2A
:10039000E35AFF4FF0829FB7F8940B8FEA89FB89ED
:1003A00080818062CFCFCF93DF93EC01888D88234B
:1003B000B9F0AA89BB89E889F9898C9185FD03C0C8
:1003C000808186FD0DC00FB607FCF7CF8C9185FFAD
:1003D000F2CF808185FFEDCFCE010E946401E9CF8D
:1003E000DF91CF91089590E0FC01E859FF4F2491EF
:1003F000FC01EC55FF4F3491FC01E057FF4FE491B5
:10040000EE23C9F0222339F0233001F1A8F4213082
:1004100019F1223029F1F0E0EE0FFF1FE458FF4FF1
:10042000A591B4918FB7F894EC91611126C03095E5
:100430003E233C938FBF08952730A9F02830C9F0A0
:10044000243049F7809180008F7D03C08091800027
:100450008F7780938000DFCF84B58F7784BDDBCF2B
:1004600084B58F7DFBCF8091B0008F778093B000F3
:10047000D2CF8091B0008F7DF9CF3E2BDACF3FB73E
:10048000F89480913F0190914001A0914101B09179
:10049000420126B5A89B05C02F3F19F00196A11D6A
:1004A000B11D3FBFBA2FA92F982F8827BC01CD01BE
:1004B000620F711D811D911D42E0660F771F881F1D
:1004C000991F4A95D1F70895089590E080E0089526
:1004D000FB0101900020E9F73197AF01461B570B54
:1004E000DC01ED91FC910280F381E02D0994CF9322
:1004F000DF93EC0160E08E810E94F30161E08E8168
:100500000E94F30160E08E810E94F3018BE891E08C
:100510000197F1F7DF91CF910895CF92DF92EF929B
:10052000FF920F931F93CF93DF936C017C0187E0C1
:10053000E80EF11CD0E0C0E0062F10E0B8010C2E50
:1005400002C0759567950A94E2F76170F701819191
:100550007F010E94F3012196C430D10579F7C601CD
:10056000DF91CF911F910F91FF90EF90DF90CF908F
:100570000C947702CF92DF92EF92FF920F931F932A
:10058000CF93DF93EC01F62E642F8C810E94F30150
:100590008D818F3F19F060E00E94F3010F2D10E074
:1005A0008F8584FF25C06E0187E0C80ED11CF12C19
:1005B000E12CB8010E2C02C0759567950A94E2F7FC
:1005C0006170F60181916F010E94F301FFEFEF1A54
:1005D000FF0A88E0E816F10461F7CE01DF91CF91C0
:1005E0001F910F91FF90EF90DF90CF900C947702C6
:1005F000B80184E0759567958A95E1F7CE010E9470
:100600008D026F2DCE01DF91CF911F910F91FF9041
:10061000EF90DF90CF900C948D0240E0682F84EE35
:1006200091E00C94BA02CF93DF93823029F4909139
:10063000F30198609093F3018093F7011092F80111
:1006400080E48093F90180E18093FA0180E5809352
:10065000FB018091E8010E9487008091E9018F3FB2
:1006600011F00E9487008091EA010E948700C4EE89
:10067000D1E09E01245E31408091F30184FD0AC0E7
:1006800084E090E02196281739073CF48E810E947F
:100690008700EFCF88E090E0F5CF8BE39DE00197F6
:1006A000F1F760E08091E8010E94F30160E0809141
:1006B000EA010E94F3018091E9018F3F19F060E0A7
:1006C0000E94F3018091F30184FD39C063E084EE60
:1006D00091E00E948D02CBE4D6E4CE010197F1F7C0
:1006E00063E084EE91E00E948D022197F1F763E0D0
:1006F00084EE91E00E948D0283E592E00197F1F78C
:1007000062E084EE91E00E948D028091F3018062AC
:100710000E940D0384E08093F4018CE00E940D039D
:1007200081E00E940D038BE39FE10197F1F782E0E6
:100730008093F50186E0DF91CF910C940D038062E8
:100740000E940D038BE496E40197F1F78091F30189
:1007500080620E940D0383E592E00197F1F780919A
:10076000F30180620E940D03D0CF41E00E94BA02E3
:1007700081E090E008950F931F93CF93DF93EC01F6
:1007800088819981009759F02A813B812617370784
:1007900030F081E0DF91CF911F910F9108958B018F
:1007A0006F5F7F4F0E94ED07009759F09983888310
:1007B0001B830A832C813D81232B59F7FC01108276
:1007C000E8CF80E0E7CF1F920F920FB60F9211246F
:1007D0002F933F934F935F936F937F938F939F9349
:1007E000AF93BF93EF93FF9387E491E00E9464017E
:1007F000FF91EF91BF91AF919F918F917F916F91F9
:100800005F914F913F912F910F900FBE0F901F90CE
:1008100018951F920F920FB60F9211242F938F935A
:100820009F93EF93FF93E0915701F09158018081DE
:10083000E0915D01F0915E0182FD1BC0908180918D
:1008400060018F5F8F7320916101821741F0E09109
:100850006001F0E0E95BFE4F958F80936001FF91AE
:10086000EF919F918F912F910F900FBE0F901F903E
:1008700018958081F4CF1F920F920FB60F9211241A
:100880002F933F938F939F93AF93BF938091430197
:1008900090914401A0914501B091460130913E01F3
:1008A00023E0230F2D3758F50196A11DB11D20938C
:1008B0003E018093430190934401A0934501B0937E
:1008C000460180913F0190914001A0914101B0917A
:1008D00042010196A11DB11D80933F0190934001FB
:1008E000A0934101B0934201BF91AF919F918F912D
:1008F0003F912F910F900FBE0F901F90189526E8F3
:10090000230F0296A11DB11DD2CFE7E4F1E01382BF
:10091000128288EE93E0A0E0B0E084839583A68302
:10092000B7838CE091E09183808385EC90E095879C
:10093000848784EC90E09787868780EC90E0918BA9
:10094000808B81EC90E0938B828B82EC90E0958B96
:10095000848B86EC90E0978B868B118E128E138E93
:10096000148EE4EEF1E0138212828EE191E0918325
:1009700080838CE084838FEF85838BE0868387E0A0
:10098000878386E0808785E0818784E0828713867D
:10099000148615861686178681E00C941303CF9370
:1009A000DF93CDB7DEB7A3970FB6F894DEBF0FBEC7
:1009B000CDBF789484B5826084BD84B5816084BDE8
:1009C00085B5826085BD85B5816085BD80916E00ED
:1009D000816080936E00109281008091810082601E
:1009E000809381008091810081608093810080915B
:1009F00080008160809380008091B100846080934A
:100A0000B1008091B00081608093B00080917A0045
:100A1000846080937A0080917A00826080937A006B
:100A200080917A00816080937A0080917A0080685A
:100A300080937A001092C100E0915701F091580123
:100A400082E08083E0915301F09154011082E091A3
:100A50005501F09156018FEC808310925F01E09177
:100A60005B01F0915C0186E08083E0915901F09197
:100A70005A01808180618083E0915901F0915A018F
:100A8000808188608083E0915901F0915A018081D2
:100A900080688083E0915901F0915A0180818F7DB7
:100AA000808382E00E9413032AE0422E512C612CA5
:100AB000712C90E4392E30927C0080917A00806411
:100AC00080937A0080917A0086FDFCCF2091780097
:100AD000C0907900DC2CC22E809100019091010120
:100AE0008C159D05B9F1D0920101C09200010D2C29
:100AF000000CEE08FF08F7FE73C06DE287E491E09A
:100B00000E94860122273327A9012C193D094E098D
:100B10005F0919A28E010F5D1F4FCA01B901A30120
:100B200092010E94A006605DF80162938F01211579
:100B300031054105510589F70115110529F0B80165
:100B400087E491E00E94680266E271E087E491E048
:100B50000E94680287E491E00E9444011816190679
:100B60000CF084C01A8219821C821B821E821D8294
:100B700070E060E0CE0101960E94BB0329813A81BA
:100B8000811144C02115310519F0C9010E94640783
:100B90001A8219821E821D821C821B820E94F6000C
:100BA00097FD3CC08A309105C9F18AA31BA20D8133
:100BB0001E810F5F1F4FB801CE0101960E94BB033B
:100BC000882361F329813A818D819E81BE016E5D0A
:100BD0007F4F820F931F0E94B3081E830D83DECFC9
:100BE000A701960119A28E010F5D1F4FCA01B9011D
:100BF000A30192010E94A006605DF80162938F013B
:100C0000211531054105510589F796CF1E821D82B8
:100C100068E271E0C9010E94B308C0CF81E00E9480
:100C20000D038BE39FE10197F1F769E271E084EE38
:100C300091E00E946802E091F701E23008F047C0BD
:100C4000E150F0E0EC51FE4F848980680E940D0372
:100C50004D815E8169817A8184EE91E00E94A600D7
:100C600089819A81009711F00E9464070E943F02D7
:100C70004B015C0184E6C82ED12CE12CF12C0E94A2
:100C80003F02681979098A099B09683E734081050A
:100C90009105A8F3F1E0CF1AD108E108F10828EE98
:100CA000820E23E0921EA11CB11CC114D104E104E8
:100CB000F10429F780E090E0892B09F4FCCE0E9432
:100CC0005001882309F4F7CE0E940000F2CEE1E043
:100CD000B8CF2F923F924F925F926F927F928F92F6
:100CE0009F92AF92BF92CF92DF92EF92FF920F93BB
:100CF0001F93CF93DF93CDB7DEB7CA1BDB0B0FB6C5
:100D0000F894DEBF0FBECDBF09942A883988488881
:100D10005F846E847D848C849B84AA84B984C88417
:100D2000DF80EE80FD800C811B81AA81B981CE0F0E
:100D3000D11D0FB6F894DEBF0FBECDBFED010895F3
:100D4000A1E21A2EAA1BBB1BFD010DC0AA1FBB1FCF
:100D5000EE1FFF1FA217B307E407F50720F0A21B41
:100D6000B30BE40BF50B661F771F881F991F1A94AE
:100D700069F760957095809590959B01AC01BD01D8
:100D8000CF010895EE0FFF1F0590F491E02D099417
:100D90000F931F93CF93DF938230910510F482E07D
:100DA00090E0E091FE01F091FF0130E020E0B0E042
:100DB000A0E0309799F42115310509F44AC0281BA9
:100DC000390B24303105D8F58A819B816115710575
:100DD00089F1FB0193838283FE0111C0408151811F
:100DE0000281138148175907E0F04817590799F411
:100DF000109761F012960C93129713961C933296EB
:100E0000CF01DF91CF911F910F9108950093FE01C3
:100E10001093FF01F4CF2115310551F0421753070C
:100E200038F0A901DB019A01BD01DF01F801C1CF52
:100E3000EF01F9CF9093FF018093FE01CDCFFE012A
:100E4000E20FF31F81939193225031093983288354
:100E5000D7CF2091FC013091FD01232B41F420914B
:100E60000401309105013093FD012093FC01209194
:100E70000201309103012115310541F42DB73EB730
:100E80004091060150910701241B350BE091FC01B4
:100E9000F091FD01E217F307A0F42E1B3F0B28177A
:100EA000390778F0AC014E5F5F4F2417350748F0E3
:100EB0004E0F5F1F5093FD014093FC01819391936E
:100EC0009FCFF0E0E0E09CCFCF93DF930097E9F075
:100ED000FC01329713821282A091FE01B091FF01B2
:100EE000ED0130E020E01097A1F420813181820FE4
:100EF000931F2091FC013091FD012817390709F05B
:100F000061C0F093FD01E093FC01DF91CF91089562
:100F1000EA01CE17DF07E8F54A815B819E014115A2
:100F20005105B1F7E901FB83EA8349915991C40F57
:100F3000D51FEC17FD0761F4808191810296840F23
:100F4000951FE90199838883828193819B838A839A
:100F5000F0E0E0E012968D919C9113970097B9F51F
:100F60002D913C911197CD010296820F931F2091F4
:100F7000FC013091FD012817390739F6309751F5FA
:100F80001092FF011092FE01B093FD01A093FC01AD
:100F9000BCCFD383C28340815181840F951FC81772
:100FA000D90761F44E5F5F4F88819981480F591FBF
:100FB000518340838A819B819383828321153105EC
:100FC00009F0B0CFF093FF01E093FE019ECFFD0149
:100FD000DC01C0CF13821282D7CFB0E0A0E0E3EFF4
:100FE000F7E00C946B068C01009751F4CB010E9442
:100FF000C8068C01C801CDB7DEB7E0E10C948706C6
:10100000FC01E60FF71F9C0122503109E217F3079C
:1010100008F49DC0D901CD91DC911197C617D7076F
:1010200098F0C530D10530F3CE01049786179707A5
:1010300008F3C61BD70B2297C193D1936D937C9372
:10104000CF010E946407D6CF5B01AC1ABD0A4C01E8
:101050008C0E9D1EA091FE01B091FF01512C412CE0
:10106000F12CE12C109731F58091FC019091FD015C
:101070008815990509F05CC04616570608F058C057
:101080008091020190910301009741F48DB79EB7C2
:101090004091060150910701841B950BE817F90751
:1010A00008F055C0F093FD01E093FC01F901718354
:1010B0006083A0CF8D919C91119712966C9012979E
:1010C00013967C901397A815B90559F56C0142E069
:1010D000C40ED11CCA14DB0420F1AC014A195B090F
:1010E000DA011296159780F06282738251834083F1
:1010F000D9016D937C93E114F10471F0D70113963B
:10110000FC93EE93129776CF22968C0F9D1FF901D8
:1011100091838083F301EFCFF093FF01E093FE0111
:1011200069CF4816590608F42C017D01D3019ACFE6
:10113000CB010E94C8067C01009749F0AE01B801BE
:101140000E94AA08C8010E946407870153CF10E0DB
:1011500000E050CFFB01DC0102C001900D92415034
:101160005040D8F70895FB01DC0101900D9200205A
:08117000E1F70895F894FFCFA8
:10117800FFFF000000028000000000008601A600BA
:10118800D300D3014401E200360100000000B5039A
:10119800A600650264020D0A00566F6C756D652025
:0E11A8006C6576656C2069732061743A0000F6
:00000001FF
