:100000000C945D000C9485000C9485000C94850084
:100010000C9485000C9485000C9485000C9485004C
:100020000C9485000C9485000C9485000C9485003C
:100030000C9485000C9485000C9485000C9485002C
:100040000C9428040C9485000C94F6030C94D003B3
:100050000C9485000C9485000C9485000C9485000C
:100060000C9485000C94850000000008000201003B
:100070000003040700000000000000000000000072
:10008000250028002B0000000000240027002A0083
:10009000040404040404040402020202020203032E
:1000A0000303030301020408102040800102040836
:1000B0001020010204081020720411241FBECFEF8B
:1000C000D8E0DEBFCDBF22E0A0E4B1E001C01D92C8
:1000D000A230B207E1F711E0A0E0B1E0E8E8F1E119
:1000E00002C005900D92A034B107D9F710E0CDE51C
:1000F000D0E004C02197FE010E94CA06CC35D1078A
:10010000C9F70E94BC040C94C2080C94000090E053
:10011000FC01EC55FF4F249180579F4FFC018491C7
:10012000882399F090E0880F991FFC01EA57FF4F50
:10013000A591B491FC01E458FF4F859194918FB73C
:10014000F894EC91E22BEC938FBF0895AF92BF929D
:10015000CF92DF92EF92FF920F931F93CF93DF9393
:100160006C017B018B01040F151FEB015E01AE18C2
:10017000BF08C017D10759F06991D601ED91FC91E4
:100180000190F081E02DC6010995892B79F7C50111
:10019000DF91CF911F910F91FF90EF90DF90CF9063
:1001A000BF90AF900895FC01538D448D252F30E012
:1001B000842F90E0821B930B541710F0CF96089574
:1001C00001970895FC01918D828D981761F0A28DA1
:1001D000AE0FBF2FB11D5D968C91928D9F5F9F7367
:1001E000928F90E008958FEF9FEF08952FB7F894C6
:1001F0008091450190914601A0914701B09148013D
:100200002FBF8093510190935201A0935301B0935B
:10021000540189E491E00E94E20097FF26C02FB7C5
:10022000F8948091450190914601A0914701B091C9
:1002300048012FBF409151015091520160915301EB
:1002400070915401841B950BA60BB70B40914D0187
:1002500050914E0160914F017091500184179507A4
:10026000A607B707B0F28FEF9FEF0895FC01918DBD
:10027000828D981731F0828DE80FF11D858D90E009
:1002800008958FEF9FEF0895FC01918D228D892FA6
:1002900090E0805C9F4F821B91098F73992708958E
:1002A00089E491E00E94440121E0892B09F420E0D7
:1002B000822F089580E090E0892B29F00E94500160
:1002C00081110C9400000895FC01A48DA80FB92F92
:1002D000B11DA35ABF4F2C91848D90E001968F736E
:1002E0009927848FA689B7892C93A089B1898C918D
:1002F000837080648C93938D848D981306C00288DC
:10030000F389E02D80818F7D80830895EF92FF92A5
:100310000F931F93CF93DF93EC0181E0888F9B8D28
:100320008C8D98131AC0E889F989808185FF15C0E2
:100330009FB7F894EE89FF896083E889F989808105
:100340008370806480839FBF81E090E0DF91CF91D4
:100350001F910F91FF90EF900895F62E0B8D10E0F6
:100360000F5F1F4F0F731127E02E8C8D8E110CC065
:100370000FB607FCFACFE889F989808185FFF5CFB0
:10038000CE010E946401F1CFEB8DEC0FFD2FF11D2A
:10039000E35AFF4FF0829FB7F8940B8FEA89FB89ED
:1003A00080818062CFCFCF93DF93EC01888D88234B
:1003B000B9F0AA89BB89E889F9898C9185FD03C0C8
:1003C000808186FD0DC00FB607FCF7CF8C9185FFAD
:1003D000F2CF808185FFEDCFCE010E946401E9CF8D
:1003E000DF91CF91089590E0FC01E859FF4F2491EF
:1003F000FC01EC55FF4F3491FC01E057FF4FE491B5
:10040000EE23C9F0222339F0233001F1A8F4213082
:1004100019F1223029F1F0E0EE0FFF1FE458FF4FF1
:10042000A591B4918FB7F894EC91611126C03095E5
:100430003E233C938FBF08952730A9F02830C9F0A0
:10044000243049F7809180008F7D03C08091800027
:100450008F7780938000DFCF84B58F7784BDDBCF2B
:1004600084B58F7DFBCF8091B0008F778093B000F3
:10047000D2CF8091B0008F7DF9CF3E2BDACF089597
:1004800090E080E00895FB0101900020E9F73197AA
:10049000AF01461B570BDC01ED91FC910280F3810B
:1004A000E02D0994CF93DF93EC0188819981009727
:1004B00011F00E946C07198218821D821C821B8217
:1004C0001A82DF91CF910895CF93DF93EC0160E022
:1004D0008E810E94F30161E08E810E94F30160E051
:1004E0008E810E94F3018BE891E00197F1F7DF9193
:1004F000CF910895CF92DF92EF92FF920F931F93C7
:10050000CF93DF936C017C0187E0E80EF11CD0E013
:10051000C0E0062F10E0B8010C2E02C0759567955B
:100520000A94E2F76170F70181917F010E94F30163
:100530002196C430D10579F7C601DF91CF911F9183
:100540000F91FF90EF90DF90CF900C946402CF92C8
:10055000DF92EF92FF920F931F93CF93DF93EC0103
:10056000F62E642F8C810E94F3018D818F3F19F04C
:1005700060E00E94F3010F2D10E08F8584FF25C0FD
:100580006E0187E0C80ED11CF12CE12CB8010E2CB5
:1005900002C0759567950A94E2F76170F601819142
:1005A0006F010E94F301FFEFEF1AFF0A88E0E816DF
:1005B000F10461F7CE01DF91CF911F910F91FF9070
:1005C000EF90DF90CF900C946402B80184E07595B1
:1005D00067958A95E1F7CE010E947A026F2DCE01D0
:1005E000DF91CF911F910F91FF90EF90DF90CF900F
:1005F0000C947A0240E0682F86EE91E00C94A702FA
:10060000CF93DF93823029F49091F5019860909315
:10061000F5018093F9011092FA0180E48093FB01C7
:1006200080E18093FC0180E58093FD018091EA01E7
:100630000E9487008091EB018F3F11F00E9487009C
:100640008091EC010E948700C6EED1E09E01265EFB
:1006500031408091F50184FD0AC084E090E021964C
:10066000281739073CF48E810E948700EFCF88E07D
:1006700090E0F5CF8BE39DE00197F1F760E080918A
:10068000EA010E94F30160E08091EC010E94F30115
:100690008091EB018F3F19F060E00E94F30180919F
:1006A000F50184FD39C063E086EE91E00E947A0294
:1006B000CBE4D6E4CE010197F1F763E086EE91E05A
:1006C0000E947A022197F1F763E086EE91E00E94A2
:1006D0007A0283E592E00197F1F762E086EE91E01D
:1006E0000E947A028091F50180620E94FA0284E001
:1006F0008093F6018CE00E94FA0281E00E94FA02E7
:100700008BE39FE10197F1F782E08093F70186E0A8
:10071000DF91CF910C94FA0280620E94FA028BE47E
:1007200096E40197F1F78091F50180620E94FA0248
:1007300083E592E00197F1F78091F50180620E94D4
:10074000FA02D0CF41E00E94A70281E090E0089534
:100750000F931F93CF93DF93EC01888199810097CA
:1007600059F02A813B812617370730F081E0DF916D
:10077000CF911F910F9108958B016F5F7F4F0E9462
:10078000F507009759F0998388831B830A832C818E
:100790003D81232B59F7FC011082E8CF80E0E7CFA1
:1007A0001F920F920FB60F9211242F933F934F93E6
:1007B0005F936F937F938F939F93AF93BF93EF93C9
:1007C000FF9389E491E00E946401FF91EF91BF9152
:1007D000AF919F918F917F916F915F914F913F91D9
:1007E0002F910F900FBE0F901F9018951F920F9290
:1007F0000FB60F9211242F938F939F93EF93FF9334
:10080000E0915901F0915A018081E0915F01F091EE
:10081000600182FD1BC09081809162018F5F8F73A8
:1008200020916301821741F0E0916201F0E0E75B03
:10083000FE4F958F80936201FF91EF919F918F9171
:100840002F910F900FBE0F901F9018958081F4CFBD
:100850001F920F920FB60F9211242F933F938F93F5
:100860009F93AF93BF938091450190914601A091D2
:100870004701B09148013091440123E0230F2D3707
:1008800058F50196A11DB11D2093440180934501A7
:1008900090934601A0934701B09348018091400195
:1008A00090914101A0914201B09143010196A11D97
:1008B000B11D8093400190934101A0934201B093F8
:1008C0004301BF91AF919F918F913F912F910F90D5
:1008D0000FBE0F901F90189526E8230F0296A11DBA
:1008E000B11DD2CFE9E4F1E01382128288EE93E0E9
:1008F000A0E0B0E084839583A683B7838CE091E089
:100900009183808385EC90E09587848784EC90E0E8
:100910009787868780EC90E0918B808B81EC90E0CC
:10092000938B828B82EC90E0958B848B86EC90E0AD
:10093000978B868B118E128E138E148EE6EEF1E05D
:10094000138212828EE191E0918380838CE0848314
:100950008FEF85838BE0868387E0878386E08087BF
:1009600085E0818784E08287138614861586168643
:10097000178681E00C940003CF93DF93CDB7DEB7E9
:10098000A7970FB6F894DEBF0FBECDBF789484B59D
:10099000826084BD84B5816084BD85B5826085BD7B
:1009A00085B5816085BD80916E00816080936E0009
:1009B00010928100809181008260809381008091FB
:1009C00081008160809381008091800081608093AC
:1009D00080008091B10084608093B1008091B0006C
:1009E00081608093B00080917A00846080937A0067
:1009F00080917A00826080937A0080917A00816091
:100A000080937A0080917A00806880937A001092B7
:100A1000C100E0915901F0915A0182E08083E09198
:100A20005501F09156011082E0915701F091580163
:100A30008FEC808310926101E0915D01F0915E0185
:100A400086E08083E0915B01F0915C0180818061B0
:100A50008083E0915B01F0915C01808188608083FC
:100A6000E0915B01F0915C01808180688083E0917E
:100A70005B01F0915C0180818F7D808382E00E9428
:100A8000000380E4582E9AE0C92ED12CE12CF12CE1
:100A90002BE3222E2FE1322E30E0632E30E0732E36
:100AA00050927C0080917A00806480937A008091DB
:100AB0007A0086FDFCCF8091780020917900922EFB
:100AC000882E809100019091010188159905B9F156
:100AD0009092010180920001092C000CAA08BB0829
:100AE000B7FE69C06DE289E491E00E948601222789
:100AF0003327A901281939094A095B0919A28E016E
:100B00000F5D1F4FCA01B901A70196010E94A806F7
:100B1000605DF80162938F01211531054105510592
:100B200089F70115110529F0B80189E491E00E94C7
:100B3000430266E271E089E491E00E94430289E4A5
:100B400091E00E944401181619060CF0AFC01BA2D8
:100B50001AA21DA21CA21FA21EA270E060E0CE017C
:100B600082960E94A80381113CC0CE0182960E9409
:100B700052020E94F60097FD3DC08A309105D1F1E6
:100B800089831A820EA11FA10F5F1F4FB801CE01EA
:100B900082960E94A803882361F32AA13BA18EA11B
:100BA0009FA1BE016F5F7F4F820F931F0E94BB0802
:100BB0001FA30EA3DECFA501940119A28E010F5D24
:100BC0001F4FCA01B901A70196010E94A806605DE6
:100BD000F80162938F01211531054105510589F70F
:100BE000A0CF1FA21EA268E271E08AA19BA10E9471
:100BF000BB08BFCF81E00E94FA02C1010197F1F763
:100C000069E271E086EE91E00E944302E091F90111
:100C1000E23008F057C0E150F0E0EA51FE4F84891D
:100C200080680E94FA021A8219821C821B821E822C
:100C30001D820AA11BA10115110569F08EA09FA0BC
:100C4000B401CE0101960E94A80381113DC0CE01DE
:100C500001960E9452020D811E810E5F1F4FB80146
:100C6000CE0101960E94A8038823B1F129813A811F
:100C70008D819E816DE371E0820F931F0E94BB08FE
:100C80001E830D834D815E8169817A8186EE91E0BC
:100C90000E94A60089819A81009711F00E946C073A
:100CA0008AA19BA1009711F00E946C076114710446
:100CB00009F4F6CE0E945001882309F4F1CE0E9477
:100CC0000000EECEE1E0A8CF9E828D82B80189813E
:100CD0009A810E94BB08BFCFCE0101960E945202AA
:100CE000D1CF2F923F924F925F926F927F928F92CD
:100CF0009F92AF92BF92CF92DF92EF92FF920F93AB
:100D00001F93CF93DF93CDB7DEB7CA1BDB0B0FB6B4
:100D1000F894DEBF0FBECDBF09942A883988488871
:100D20005F846E847D848C849B84AA84B984C88407
:100D3000DF80EE80FD800C811B81AA81B981CE0FFE
:100D4000D11D0FB6F894DEBF0FBECDBFED010895E3
:100D5000A1E21A2EAA1BBB1BFD010DC0AA1FBB1FBF
:100D6000EE1FFF1FA217B307E407F50720F0A21B31
:100D7000B30BE40BF50B661F771F881F991F1A949E
:100D800069F760957095809590959B01AC01BD01C8
:100D9000CF010895EE0FFF1F0590F491E02D099407
:100DA0000F931F93CF93DF938230910510F482E06D
:100DB00090E0E0910002F091010230E020E0B0E02C
:100DC000A0E0309799F42115310509F44AC0281B99
:100DD000390B24303105D8F58A819B816115710565
:100DE00089F1FB0193838283FE0111C0408151810F
:100DF0000281138148175907E0F04817590799F401
:100E0000109761F012960C93129713961C933296DA
:100E1000CF01DF91CF911F910F91089500930002B0
:100E200010930102F4CF2115310551F042175307F9
:100E300038F0A901DB019A01BD01DF01F801C1CF42
:100E4000EF01F9CF9093010280930002CDCFFE0114
:100E5000E20FF31F81939193225031093983288344
:100E6000D7CF2091FE013091FF01232B41F4209137
:100E70000401309105013093FF012093FE01209180
:100E80000201309103012115310541F42DB73EB720
:100E90004091060150910701241B350BE091FE01A2
:100EA000F091FF01E217F307A0F42E1B3F0B281768
:100EB000390778F0AC014E5F5F4F2417350748F0D3
:100EC0004E0F5F1F5093FF014093FE01819391935A
:100ED0009FCFF0E0E0E09CCFCF93DF930097E9F065
:100EE000FC01329713821282A0910002B09101029C
:100EF000ED0130E020E01097A1F420813181820FD4
:100F0000931F2091FE013091FF012817390709F046
:100F100061C0F093FF01E093FE01DF91CF9108954E
:100F2000EA01CE17DF07E8F54A815B819E01411592
:100F30005105B1F7E901FB83EA8349915991C40F47
:100F4000D51FEC17FD0761F4808191810296840F13
:100F5000951FE90199838883828193819B838A838A
:100F6000F0E0E0E012968D919C9113970097B9F50F
:100F70002D913C911197CD010296820F931F2091E4
:100F8000FE013091FF012817390739F6309751F5E6
:100F90001092010210920002B093FF01A093FE0193
:100FA000BCCFD383C28340815181840F951FC81762
:100FB000D90761F44E5F5F4F88819981480F591FAF
:100FC000518340838A819B819383828321153105DC
:100FD00009F0B0CFF0930102E09300029ECFFD0133
:100FE000DC01C0CF13821282D7CFB0E0A0E0EBEFDC
:100FF000F7E00C9473068C01009751F4CB010E942A
:10100000D0068C01C801CDB7DEB7E0E10C948F06A5
:10101000FC01E60FF71F9C0122503109E217F3078C
:1010200008F49DC0D901CD91DC911197C617D7075F
:1010300098F0C530D10530F3CE0104978617970795
:1010400008F3C61BD70B2297C193D1936D937C9362
:10105000CF010E946C07D6CF5B01AC1ABD0A4C01D0
:101060008C0E9D1EA0910002B0910102512C412CCA
:10107000F12CE12C109731F58091FE019091FF0148
:101080008815990509F05CC04616570608F058C047
:101090008091020190910301009741F48DB79EB7B2
:1010A0004091060150910701841B950BE817F90741
:1010B00008F055C0F093FF01E093FE01F901718340
:1010C0006083A0CF8D919C91119712966C9012978E
:1010D00013967C901397A815B90559F56C0142E059
:1010E000C40ED11CCA14DB0420F1AC014A195B09FF
:1010F000DA011296159780F06282738251834083E1
:10110000D9016D937C93E114F10471F0D70113962A
:10111000FC93EE93129776CF22968C0F9D1FF901C8
:1011200091838083F301EFCFF0930102E0930002FB
:1011300069CF4816590608F42C017D01D3019ACFD6
:10114000CB010E94D0067C01009749F0AE01B801A6
:101150000E94B208C8010E946C07870153CF10E0BB
:1011600000E050CFFB01DC0102C001900D92415024
:101170005040D8F70895FB01DC0101900D9200204A
:08118000E1F70895F894FFCF98
:10118800FFFF000002028000000000008601A600A8
:10119800D300D3014401E200360100000000A2039D
:1011A800A60040023F020D0A00566F6C756D65205F
:1011B8006C6576656C2069732061743A002025009F
:00000001FF
