:100000000C945D000C9485000C9485000C94850084
:100010000C9485000C9485000C9485000C9485004C
:100020000C9485000C9485000C9485000C9485003C
:100030000C9485000C9485000C9485000C9485002C
:100040000C9416040C9485000C94E4030C94BE03E9
:100050000C9485000C9485000C9485000C9485000C
:100060000C9485000C94850000000008000201003B
:100070000003040700000000000000000000000072
:10008000250028002B0000000000240027002A0083
:10009000040404040404040402020202020203032E
:1000A0000303030301020408102040800102040836
:1000B0001020010204081020600411241FBECFEF9D
:1000C000D8E0DEBFCDBF22E0A6E4B1E001C01D92C2
:1000D000A830B207E1F711E0A0E0B1E0EAE4F1E115
:1000E00002C005900D92A634B107D9F710E0CDE516
:1000F000D0E004C02197FE010E94AB06CC35D107A9
:10010000C9F70E94AA040C94A3080C94000090E084
:10011000FC01EC55FF4F249180579F4FFC018491C7
:10012000882399F090E0880F991FFC01EA57FF4F50
:10013000A591B491FC01E458FF4F859194918FB73C
:10014000F894EC91E22BEC938FBF0895AF92BF929D
:10015000CF92DF92EF92FF920F931F93CF93DF9393
:100160006C017B018B01040F151FEB015E01AE18C2
:10017000BF08C017D10759F06991D601ED91FC91E4
:100180000190F081E02DC6010995892B79F7C50111
:10019000DF91CF911F910F91FF90EF90DF90CF9063
:1001A000BF90AF900895FC01538D448D252F30E012
:1001B000842F90E0821B930B541710F0CF96089574
:1001C00001970895FC01918D828D981761F0A28DA1
:1001D000AE0FBF2FB11D5D968C91928D9F5F9F7367
:1001E000928F90E008958FEF9FEF08952FB7F894C6
:1001F00080914B0190914C01A0914D01B0914E0125
:100200002FBF8093570190935801A0935901B09349
:100210005A018FE491E00E94E20097FF26C02FB7B9
:10022000F89480914B0190914C01A0914D01B091B7
:100230004E012FBF409157015091580160915901D3
:1002400070915A01841B950BA60BB70B409153017B
:100250005091540160915501709156018417950792
:10026000A607B707B0F28FEF9FEF0895FC01918DBD
:10027000828D981731F0828DE80FF11D858D90E009
:1002800008958FEF9FEF0895FC01918D228D892FA6
:1002900090E0805C9F4F821B91098F73992708958E
:1002A0008FE491E00E94440121E0892B09F420E0D1
:1002B000822F089580E090E0892B29F00E94500160
:1002C00081110C9400000895FC01A48DA80FB92F92
:1002D000B11DA35ABF4F2C91848D90E001968F736E
:1002E0009927848FA689B7892C93A089B1898C918D
:1002F000837080648C93938D848D981306C00288DC
:10030000F389E02D80818F7D80830895EF92FF92A5
:100310000F931F93CF93DF93EC0181E0888F9B8D28
:100320008C8D98131AC0E889F989808185FF15C0E2
:100330009FB7F894EE89FF896083E889F989808105
:100340008370806480839FBF81E090E0DF91CF91D4
:100350001F910F91FF90EF900895F62E0B8D10E0F6
:100360000F5F1F4F0F731127E02E8C8D8E110CC065
:100370000FB607FCFACFE889F989808185FFF5CFB0
:10038000CE010E946401F1CFEB8DEC0FFD2FF11D2A
:10039000E35AFF4FF0829FB7F8940B8FEA89FB89ED
:1003A00080818062CFCFCF93DF93EC01888D88234B
:1003B000B9F0AA89BB89E889F9898C9185FD03C0C8
:1003C000808186FD0DC00FB607FCF7CF8C9185FFAD
:1003D000F2CF808185FFEDCFCE010E946401E9CF8D
:1003E000DF91CF91089590E0FC01E859FF4F2491EF
:1003F000FC01EC55FF4F3491FC01E057FF4FE491B5
:10040000EE23C9F0222339F0233001F1A8F4213082
:1004100019F1223029F1F0E0EE0FFF1FE458FF4FF1
:10042000A591B4918FB7F894EC91611126C03095E5
:100430003E233C938FBF08952730A9F02830C9F0A0
:10044000243049F7809180008F7D03C08091800027
:100450008F7780938000DFCF84B58F7784BDDBCF2B
:1004600084B58F7DFBCF8091B0008F778093B000F3
:10047000D2CF8091B0008F7DF9CF3E2BDACF089597
:1004800090E080E00895FB0101900020E9F73197AA
:10049000AF01461B570BDC01ED91FC910280F3810B
:1004A000E02D0994CF93DF93EC0160E08E810E94F0
:1004B000F30161E08E810E94F30160E08E810E9471
:1004C000F3018BE891E00197F1F7DF91CF91089567
:1004D000CF92DF92EF92FF920F931F93CF93DF9310
:1004E0006C017C0187E0E80EF11CD0E0C0E0062F33
:1004F00010E0B8010C2E02C0759567950A94E2F7DA
:100500006170F70181917F010E94F3012196C4304F
:10051000D10579F7C601DF91CF911F910F91FF901F
:10052000EF90DF90CF900C945202CF92DF92EF9237
:10053000FF920F931F93CF93DF93EC01F62E642F5E
:100540008C810E94F3018D818F3F19F060E00E9441
:10055000F3010F2D10E08F8584FF25C06E0187E029
:10056000C80ED11CF12CE12CB8010E2C02C07595DF
:1005700067950A94E2F76170F60181916F010E941C
:10058000F301FFEFEF1AFF0A88E0E816F10461F7C4
:10059000CE01DF91CF911F910F91FF90EF90DF90EF
:1005A000CF900C945202B80184E0759567958A95B6
:1005B000E1F7CE010E9468026F2DCE01DF91CF914D
:1005C0001F910F91FF90EF90DF90CF900C946802F5
:1005D00040E0682F8CEE91E00C949502CF93DF936E
:1005E000823029F49091FB0198609093FB018093F5
:1005F000FF011092000280E48093010280E1809369
:10060000020280E5809303028091F0010E9487003E
:100610008091F1018F3F11F00E9487008091F201DB
:100620000E948700CCEED1E09E012C5E314080918B
:10063000FB0184FD0AC084E090E021962817390769
:100640003CF48E810E948700EFCF88E090E0F5CFE8
:100650008BE39DE00197F1F760E08091F0010E944B
:10066000F30160E08091F2010E94F3018091F101B9
:100670008F3F19F060E00E94F3018091FB0184FD3F
:1006800039C063E08CEE91E00E946802CBE4D6E4CE
:10069000CE010197F1F763E08CEE91E00E946802D1
:1006A0002197F1F763E08CEE91E00E94680283E508
:1006B00092E00197F1F762E08CEE91E00E9468020F
:1006C0008091FB0180620E94E80284E08093FC013B
:1006D0008CE00E94E80281E00E94E8028BE39FE147
:1006E0000197F1F782E08093FD0186E0DF91CF91E1
:1006F0000C94E80280620E94E8028BE496E4019781
:10070000F1F78091FB0180620E94E80283E592E0AC
:100710000197F1F78091FB0180620E94E802D0CF3F
:1007200041E00E94950281E090E008950F931F93AD
:10073000CF93DF93EC0188819981009759F02A814A
:100740003B812617370730F081E0DF91CF911F9171
:100750000F9108958B016F5F7F4F0E94D60700971E
:1007600059F0998388831B830A832C813D81232B35
:1007700059F7FC011082E8CF80E0E7CF1F920F927B
:100780000FB60F9211242F933F934F935F936F9364
:100790007F938F939F93AF93BF93EF93FF938FE4D8
:1007A00091E00E946401FF91EF91BF91AF919F9101
:1007B0008F917F916F915F914F913F912F910F900A
:1007C0000FBE0F901F9018951F920F920FB60F92A9
:1007D00011242F938F939F93EF93FF93E0915F01E9
:1007E000F09160018081E0916501F091660182FDE8
:1007F0001BC09081809168018F5F8F732091690188
:10080000821741F0E0916801F0E0E15BFE4F958FC7
:1008100080936801FF91EF919F918F912F910F909D
:100820000FBE0F901F9018958081F4CF1F920F92EA
:100830000FB60F9211242F933F938F939F93AF93F3
:10084000BF9380914B0190914C01A0914D01B091CB
:100850004E0130914A0123E0230F2D3758F50196C0
:10086000A11DB11D20934A0180934B0190934C012F
:10087000A0934D01B0934E018091460190914701A4
:10088000A0914801B09149010196A11DB11D80932D
:10089000460190934701A0934801B0934901BF914D
:1008A000AF919F918F913F912F910F900FBE0F901D
:1008B0001F90189526E8230F0296A11DB11DD2CFD7
:1008C000EFE4F1E01382128288EE93E0A0E0B0E062
:1008D00084839583A683B7838AE091E091838083A4
:1008E00085EC90E09587848784EC90E097878687F5
:1008F00080EC90E0918B808B81EC90E0938B828BED
:1009000082EC90E0958B848B86EC90E0978B868BC5
:10091000118E128E138E148EECEEF1E01382128281
:100920008CE191E0918380838CE084838FEF8583D9
:100930008BE0868387E0878386E0808785E08187F8
:1009400084E082871386148615861686178681E0D2
:100950000C94EE02CF93DF93CDB7DEB7A7970FB617
:10096000F894DEBF0FBECDBF789484B5826084BD9D
:1009700084B5816084BD85B5826085BD85B58160A3
:1009800085BD80916E00816080936E001092810021
:1009900080918100826080938100809181008160DC
:1009A000809381008091800081608093800080919D
:1009B000B10084608093B1008091B0008160809329
:1009C000B00080917A00846080937A0080917A00F0
:1009D000826080937A0080917A00816080937A00AF
:1009E00080917A00806880937A001092C100E09133
:1009F0005F01F091600182E08083E0915B01F09102
:100A00005C011082E0915D01F0915E018FEC8083CA
:100A100010926701E0916301F091640186E08083A8
:100A2000E0916101F0916201808180618083E091B9
:100A30006101F0916201808188608083E0916101B1
:100A4000F0916201808180688083E0916101F09182
:100A5000620180818F7D808382E00E94EE020BE341
:100A60001FE19AE0492E512C612C712C80E0A82EB8
:100A700080E0B82E8FE491E00E9444011816190618
:100A80000CF0B0C01BA21AA21DA21CA21FA21EA283
:100A900070E060E0CE0182960E9496032AA13BA1FD
:100AA00081112FC02115310519F0C9010E944D0790
:100AB0001BA21AA21FA21EA21DA21CA20E94F60027
:100AC00097FD27C08A30910521F189831A82EEA013
:100AD000FFA08FEFE81AF80AB701CE0182960E94B4
:100AE0009603882359F32AA13BA18EA19FA1BE01A1
:100AF0006F5F7F4F820F931F0E949C08FFA2EEA2A0
:100B0000DDCF1FA21EA260E371E0C9010E949C0814
:100B1000D5CF8AA19BA1C12CD12C7601009719F0C9
:100B20000E9416066B0164E271E08FE491E00E947E
:100B300043020D2C000CEE08FF08F7FE5FC06DE2CB
:100B40008FE491E00E94860122273327A9012C1906
:100B50003D094E095F0919A2FE01B1967F01CA0144
:100B6000B901A30192010E948906605DF7016293B9
:100B70007F01211531054105510589F7E114F10483
:100B800029F0B7018FE491E00E9443026EE271E028
:100B90008FE491E00E94430281E00E94E802C801D4
:100BA0000197F1F761E371E08CEE91E00E9443025E
:100BB000E091FF01E230C0F5E150F0E0E451FE4F7A
:100BC000848980680E94E8024EA15FA16AA17BA18E
:100BD0008CEE91E00E94A6008AA19BA1009711F0E3
:100BE0000E944D07A114B10409F444CF0E945001A2
:100BF000882309F43FCF0E94000038CFA701960157
:100C000019A2CE0181967C01CA01B901A30192010A
:100C10000E948906605DF70162937F01211531050D
:100C20004105510589F7AACFE1E0C7CF1F93FC0129
:100C300099278827BC01E89411911032E9F3193003
:100C400010F01E30C8F31B3251F01D3249F4689485
:100C500006C00E943D06610F711D811D911D1191FD
:100C600010531A30B0F33EF49095809570956195CD
:100C70007F4F8F4F9F4F1F910895592F482F372F28
:100C8000262F660F771F881F991F660F771F881FF3
:100C9000991F620F731F841F951F660F771F881F90
:100CA000991F08952F923F924F925F926F927F9279
:100CB0008F929F92AF92BF92CF92DF92EF92FF926C
:100CC0000F931F93CF93DF93CDB7DEB7CA1BDB0B18
:100CD0000FB6F894DEBF0FBECDBF09942A883988BD
:100CE00048885F846E847D848C849B84AA84B984C4
:100CF000C884DF80EE80FD800C811B81AA81B981D0
:100D0000CE0FD11D0FB6F894DEBF0FBECDBFED01E3
:100D10000895A1E21A2EAA1BBB1BFD010DC0AA1F3C
:100D2000BB1FEE1FFF1FA217B307E407F50720F054
:100D3000A21BB30BE40BF50B661F771F881F991FCF
:100D40001A9469F760957095809590959B01AC0118
:100D5000BD01CF010895EE0FFF1F0590F491E02D26
:100D600009940F931F93CF93DF938230910510F472
:100D700082E090E0E0910602F091070230E020E08E
:100D8000B0E0A0E0309799F42115310509F44AC08C
:100D9000281B390B24303105D8F58A819B816115D8
:100DA000710589F1FB0193838283FE0111C04081AB
:100DB00051810281138148175907E0F048175907FC
:100DC00099F4109761F012960C93129713961C9356
:100DD0003296CF01DF91CF911F910F91089500932B
:100DE000060210930702F4CF2115310551F0421786
:100DF000530738F0A901DB019A01BD01DF01F801B9
:100E0000C1CFEF01F9CF9093070280930602CDCFB7
:100E1000FE01E20FF31F8193919322503109398330
:100E20002883D7CF2091040230910502232B41F46F
:100E300020910201309103013093050220930402B6
:100E400020910001309101012115310541F42DB7A8
:100E50003EB74091040150910501241B350BE091F0
:100E60000402F0910502E217F307A0F42E1B3F0BDA
:100E70002817390778F0AC014E5F5F4F241735070C
:100E800048F04E0F5F1F5093050240930402819378
:100E900091939FCFF0E0E0E09CCFCF93DF9300975A
:100EA000E9F0FC01329713821282A0910602B09100
:100EB0000702ED0130E020E01097A1F4208131819C
:100EC000820F931F209104023091050228173907E1
:100ED00009F061C0F0930502E0930402DF91CF9125
:100EE0000895EA01CE17DF07E8F54A815B819E018C
:100EF00041155105B1F7E901FB83EA834991599105
:100F0000C40FD51FEC17FD0761F480819181029613
:100F1000840F951FE90199838883828193819B8344
:100F20008A83F0E0E0E012968D919C9113970097F0
:100F3000B9F52D913C911197CD010296820F931F27
:100F400020910402309105022817390739F63097AD
:100F500051F51092070210920602B0930502A09379
:100F60000402BCCFD383C28340815181840F951F7B
:100F7000C817D90761F44E5F5F4F88819981480F88
:100F8000591F518340838A819B81938382832115DA
:100F9000310509F0B0CFF0930702E09306029ECF2F
:100FA000FD01DC01C0CF13821282D7CFB0E0A0E0F8
:100FB000ECEDF7E00C9454068C01009751F4CB0152
:100FC0000E94B1068C01C801CDB7DEB7E0E10C94F8
:100FD0007006FC01E60FF71F9C0122503109E21751
:100FE000F30708F49DC0D901CD91DC911197C61784
:100FF000D70798F0C530D10530F3CE010497861796
:10100000970708F3C61BD70B2297C193D1936D9313
:101010007C93CF010E944D07D6CF5B01AC1ABD0A6D
:101020004C018C0E9D1EA0910602B0910702512C1E
:10103000412CF12CE12C109731F580910402909114
:1010400005028815990509F05CC04616570608F098
:1010500058C08091000190910101009741F48DB733
:101060009EB74091040150910501841B950BE81730
:10107000F90708F055C0F0930502E0930402F90166
:1010800071836083A0CF8D919C91119712966C9083
:10109000129713967C901397A815B90559F56C0112
:1010A00042E0C40ED11CCA14DB0420F1AC014A1981
:1010B0005B09DA011296159780F062827382518380
:1010C0004083D9016D937C93E114F10471F0D70151
:1010D0001396FC93EE93129776CF22968C0F9D1F5A
:1010E000F90191838083F301EFCFF0930702E0933E
:1010F000060269CF4816590608F42C017D01D30178
:101100009ACFCB010E94B1067C01009749F0AE0155
:10111000B8010E949308C8010E944D07870153CF70
:1011200010E000E050CFFB01DC0102C001900D9205
:1011300041505040D8F70895FB01DC0101900D9219
:0A1140000020E1F70895F894FFCFB6
:10114A00000008028000000000008601A600D3000B
:10115A00D3014401E2003601000000009003A6001A
:10116A0040023F02576520726561643A20000D0A09
:10117A0000566F6C756D65206C6576656C206973B9
:06118A002061743A000030
:00000001FF
